:100000000C9434000C9451000C9451000C94510049
:100010000C9451000C9451000C9451000C9451001C
:100020000C9451000C9451000C9451000C9451000C
:100030000C9451000C9451000C9451000C945100FC
:100040000C9451000C9451000C9451000C945100EC
:100050000C9451000C9451000C9451000C945100DC
:100060000C9451000C94510011241FBECFEFD8E026
:10007000DEBFCDBF12E0A0E0B1E0E6E7F5E102C0EF
:1000800005900D92A43BB107D9F712E0A4EBB2E0C2
:1000900001C01D92AB3BB107E1F70E9453000C94E5
:1000A000B90A0C940000CF93DF93CDB7DEB76F97FA
:1000B0000FB6F894DEBF0FBECDBF0E94390780E0B7
:1000C00091E09093B6028093B5029093B80280932A
:1000D000B70282E88D8F80E191E00E94BB078E011C
:1000E000045E1F4FC8010E948D0381E291E00E94CF
:1000F000BB07C8010E94610380E391E00E94BB0737
:10010000C8010E949B0482E491E09F938F930E9418
:10011000A707BE01615E7F4FC8010E94C0048F8D9A
:100120001F928F938FE5E82E81E0F82EFF92EF92D9
:100130000E94A70783E691E09F938F930E94A707F1
:10014000BE01625E7F4FC8010E94E4048E8D1F9243
:100150008F93FF92EF920E94A7078FE791E00E9492
:10016000BB07C8010E9449048EE891E00E94BB07CA
:1001700049E065EA71E0C8010E94F1038FEA91E06D
:100180000E94BB074BE066EC71E0C8010E940704C7
:1001900082ED91E00E94BB0782E80E94F40183EEA9
:1001A00091E00E94BB07C8010E947B0182EF91E0B1
:1001B0000E94BB070E94400384E092E00E94BB07BC
:1001C0000E949C0283E192E00E94BB0769E085EAFD
:1001D00091E00E945C028AE292E00E94BB0780E00C
:1001E0000E94080589E392E00E94BB07CE010196B8
:1001F0000E941D058C858F938B858F938A858F93A5
:1002000089858F9388858F938F818F938A818F9330
:1002100089818F938C818F938B818F938E818F9324
:100220008D818F9380E592E09F938F930E94A70723
:1002300084E88D8F8FE692E00E94BB07C8010E9480
:10024000B10183EE91E00E94BB07C8010E947B01CF
:1002500080E892E00E94BB076FE7C8010E94C101DD
:100260000FB6F894DEBF0FBECDBF95E9C92E92E060
:10027000D92E7E0193E1E90EF11C24E8922E58015B
:10028000CE0101960E941D058A818F9389818F93EB
:100290008C818F938B818F938E818F938D818F93A0
:1002A000DF92CF92FF92EF920E94E80768E0C701C9
:1002B0000E946C029D8E65E5C8010E94D8012FEF57
:1002C00089E698E1215080409040E1F700C00000AD
:1002D0006AE2C5010E94D8012FEF89E698E121501A
:1002E00080409040E1F700C000000FB6F894DEBFF8
:1002F0000FBECDBFC5CF0F931F93CF93DF93CDB765
:10030000DEB765970FB6F894DEBF0FBECDBF21E014
:100310002D8BFC01818186950E948B0661E0CE01C8
:1003200045960E948F0664E18E010F5F1F4FC80142
:100330000E94C0061F930F9384EA92E09F938F93CD
:100340000E94A7070F900F900F900F9065960FB621
:10035000F894DEBF0FBECDBFDF91CF911F910F91FB
:100360000895CF93DF93EC010E9482068981811169
:1003700002C084E8898380E0DF91CF9108950C94D6
:100380008806CF93DF9300D0CDB7DEB720E3298373
:100390006A83FC01818186950E948B0662E0CE0112
:1003A00001960E948F060F900F90DF91CF910895D4
:1003B000CF93DF9300D0CDB7DEB720E129836A83E6
:1003C000FC01818186950E948B0662E0CE01019638
:1003D0000E948F060F900F90DF91CF91089580912A
:1003E0000E0186950C948B06CF93DF931F92CDB7A9
:1003F000DEB789830E9482068981811101C082E86B
:1004000080930E0180E00F90DF91CF9108950C94BE
:100410008806CF93DF9300D0CDB7DEB791E1998303
:10042000882311F090E201C090E081E0611101C0E9
:1004300080E0892B8A830E94EF0162E0CE01019661
:100440000E948F060F900F90DF91CF9108950F9328
:100450001F93CF93DF93CDB7DEB762970FB6F894B3
:10046000DEBF0FBECDBF8E010F5F1F4F21E1F80130
:1004700011922A95E9F7613108F060E1282FDE0139
:100480001296FC018E2F821B861718F481918D9392
:10049000F9CF6A8B0E94EF016A896F5FC8010E94E1
:1004A0008F0662960FB6F894DEBF0FBECDBFDF9108
:1004B000CF911F910F9108951F93CF93DF93EC017C
:1004C000162F60E080E00E940902612FCE01DF91CB
:1004D000CF911F910C9427021F93CF93DF93EC01D0
:1004E000162F60E081E00E940902612FCE01DF91AA
:1004F000CF911F910C9427021F93CF93DF93EC01B0
:10050000162F60E082E00E940902612FCE01DF9188
:10051000CF911F910C9427021F93CF93DF93EC018F
:10052000162F60E083E00E940902612FCE01DF9167
:10053000CF911F910C942702CF93DF9300D0CDB7BA
:10054000DEB780E1898380E28A830E94EF0180E444
:100550008A95F1F762E0CE0101960E948F060F9016
:100560000F90DF91CF910895CF93DF9300D0CDB757
:10057000DEB792E199838A830E94EF0162E0CE01A7
:1005800001960E948F060F900F90DF91CF910895F2
:10059000CF93DF9300D0CDB7DEB797E199838A83FD
:1005A0000E94EF0162E0CE0101960E948F060F903B
:1005B0000F90DF91CF910895CF93DF9300D0CDB707
:1005C000DEB788E089838FEF8A83611107C00E94BC
:1005D000EF0162E0CE0101960E948F060F900F900E
:1005E000DF91CF910895089508950895CF93DF93F3
:1005F00000D0CDB7DEB793E199838A830E94EF01E3
:1006000062E0CE0101960E948F060F900F90DF915D
:10061000CF9108950F931F93CF93DF931F92CDB780
:10062000DEB78C0183E189830E94EF0161E0CE0196
:1006300001960E948F0661E0C8010E94C0060F90DB
:10064000DF91CF911F910F9108950F931F93CF9337
:10065000DF931F92CDB7DEB78C0182E189830E94C0
:10066000EF0161E0CE0101960E948F0661E0C801B2
:100670000E94C0060F90DF91CF911F910F910895B6
:10068000CF93DF9300D0CDB7DEB784E1898380E2DA
:100690008A830E94EF0120E42A95F1F762E0CE01FF
:1006A00001960E948F068FEF99E628E181509040D5
:1006B0002040E1F700C000000F900F90DF91CF9134
:1006C0000895CF93DF93CDB7DEB764970FB6F89454
:1006D000DEBF0FBECDBFFC0181818160898381E0D7
:1006E0008A8364E1CE0101960E940707CE0103963A
:1006F0009F938F938AEA92E09F938F930E94A7071C
:100700000F900F900F900F9064960FB6F894DEBF85
:100710000FBECDBFDF91CF910895CF93DF93EC0152
:100720000E94EC068981811102C082E8898380E001
:10073000DF91CF9108950C94F406CF93DF9300D00E
:100740001F92CDB7DEB721E12A83FC018181898325
:10075000662311F090E201C090E081E0411101C0F8
:1007600080E0892B8B8363E0CE0101960E94F60620
:10077000F5E3FA95F1F700000F900F900F90DF91DD
:10078000CF910895CF93DF93CDB7DEB762970FB6C1
:10079000F894DEBF0FBECDBFFC01818189831A8230
:1007A000413108F040E1962FDE011396FB018E2FB8
:1007B000891B841718F481918D93F9CF62E0640F3F
:1007C000CE0101960E94F606F5E3FA95F1F70000D6
:1007D00062960FB6F894DEBF0FBECDBFDF91CF910A
:1007E0000895FF920F931F93CF93DF93EC018B013A
:1007F000F42E40E060E00E949D034F2DB801CE0131
:10080000DF91CF911F910F91FF900C94C203FF9243
:100810000F931F93CF93DF93EC018B01F42E40E0F5
:1008200061E00E949D034F2DB801CE01DF91CF9171
:100830001F910F91FF900C94C203FF920F931F938F
:10084000CF93DF93EC018B01F42E40E062E00E9435
:100850009D034F2DB801CE01DF91CF911F910F91D4
:10086000FF900C94C203FF920F931F93CF93DF93DB
:10087000EC018B01F42E40E063E00E949D034F2DBC
:10088000B801CE01DF91CF911F910F91FF900C9491
:10089000C203CF93DF9300D01F92CDB7DEB720E124
:1008A0002A8320E22B83FC018181898363E0CE01CE
:1008B00001960E94F606F5E3FA95F1F700000F9015
:1008C0000F900F90DF91CF910895CF93DF9300D0D9
:1008D0001F92CDB7DEB722E12A83FC018181898393
:1008E0006B83F5E3FA95F1F7000063E0CE01019622
:1008F0000E94F6060F900F900F90DF91CF91089510
:10090000CF93DF9300D01F92CDB7DEB727E12A83C4
:10091000FC01818189836B8363E0CE0101960E9493
:10092000F606F5E3FA95F1F700000F900F900F909F
:10093000DF91CF910895CF93DF9300D01F92CDB771
:10094000DEB724E12A8320E22B83FC0181818983A5
:10095000F5E3FA95F1F7000063E0CE0101960E94FD
:10096000F6062FEF83ED90E3215080409040E1F7B1
:1009700000C000000F900F900F90DF91CF9108956D
:100980000F931F93CF93DF9300D01F92CDB7DEB7A5
:100990008B0123E12A831B82FC0181818160898391
:1009A00063E0CE0101960E940707F5E3FA95F1F79F
:1009B00000008B81F80180830F900F900F90DF91E2
:1009C000CF911F910F9108950F931F93CF93DF93B2
:1009D00000D01F92CDB7DEB78B0122E12A831B82A4
:1009E000FC0181818160898363E0CE0101960E94D0
:1009F0000707F5E3FA95F1F700008B81F801808392
:100A00000F900F900F90DF91CF911F910F9108954C
:100A1000CF93DF931F92CDB7DEB789830E94820602
:100A20008981811101C08FE680930F0180E00F90D2
:100A3000DF91CF9108950C948806EF92FF920F9367
:100A40001F93CF93DF93CDB7DEB728970FB6F894F7
:100A5000DEBF0FBECDBF8C011886CE0101967C0192
:100A600087E0F70111928A95E9F780910F010E94C2
:100A70008B0661E0CE0108960E948F0667E0C701F1
:100A80000E94C0062981522F5F702F7730E084E0EA
:100A9000359527958A95E1F74AE0429FC001439F2B
:100AA000900D1124850F911DF801918380832A8177
:100AB000522F5F702F7730E094E0359527959A9507
:100AC000E1F7429FC001439F900D1124850F911DB6
:100AD000938382832B81522F5F702F7330E064E009
:100AE000359527956A95E1F7429FC001439F900D88
:100AF0001124850F911D958384838C81877090E0EC
:100B0000958784872D81522F5F702F7330E074E0BA
:100B1000359527957A95E1F7429FC001439F900D47
:100B20001124850F911D978386832E81522F5F702C
:100B30002F7130E0A4E035952795AA95E1F7429F03
:100B4000C001439F900D1124850F911D91878087CF
:100B50009F81892F82958F70292F2F70FAE08F9FA8
:100B6000C0011124820F911DF80193878287289676
:100B70000FB6F894DEBF0FBECDBFDF91CF911F91AE
:100B80000F91FF90EF9008958F929F92AF92BF9236
:100B9000CF92DF92EF92FF920F931F93CF93DF9349
:100BA000CDB7DEB728970FB6F894DEBF0FBECDBF26
:100BB000DC01AD90BC901197E894A7F8BB24129685
:100BC000CD90DC901397E894C7F8DD241496ED904F
:100BD000FC9015978FE1E822FF2416960D911C9149
:100BE00017970F7311271896ED91FC911997EF71D4
:100BF000FF271A968D909C901B971C968D919C9127
:100C00001D97877099272AE030E0B9010E947F077D
:100C1000482F48601982C501B9010E947F0790E101
:100C2000699F800D112480688A83C601B9010E94E2
:100C30007F0790E1699F800D11248B83C701B90163
:100C40000E947F0790E1699F800D11248C834D8362
:100C5000C801B9010E947F0790E1699F800D1124AE
:100C60008E83CF01B9010E947F0790E1699F800DBB
:100C700011248F83C401B9010E947F0790E1699F0D
:100C8000800D1124888780910F010E948B0668E0F7
:100C9000CE0101960E948F0628960FB6F894DEBF0B
:100CA0000FBECDBFDF91CF911F910F91FF90EF90BD
:100CB000DF90CF90BF90AF909F908F90089510924B
:100CC000BC0094EA9093BC009091BC0097FFFCCFCD
:100CD0009091B900987F983099F48093BB0084E894
:100CE0008093BC008091BC0087FFFCCF9091B9003D
:100CF000987F983119F081E0903419F480E00895DC
:100D000081E0089588E48093B800459A449A089554
:100D10001092BC000895880F8093B40208951F9329
:100D2000CF93DF9300D0CDB7DEB7182F8091B402F8
:100D300069839A830E945F0669819A81811114C038
:100D4000E12FF92F610F84E86E1781F09191909354
:100D5000BB008093BC009091BC0097FFFCCF9091AA
:100D6000B900987F983281F381E004C084E98093D0
:100D7000BC0080E00F900F90DF91CF911F910895FC
:100D80000F931F93CF93DF931F92CDB7DEB78C01E4
:100D90008091B402816069830E945F06698181113C
:100DA00014C084EC615060F08093BC009091BC0052
:100DB00097FFFCCF9091BB00F80191938F01F2CF88
:100DC00084E98093BC0080E001C081E00F90DF9156
:100DD000CF911F910F91089584B18F7E8C6284B959
:100DE0002A9A83E58CBD08951CBC08952A98FC01BD
:100DF000680F6E1751F081918EBD0DB407FEFDCFC7
:100E000085E38A95F1F70000F4CF2A9A08952A988D
:100E1000FC01680F6E1761F080818EBD0DB407FE76
:100E2000FDCF8EB5819385E38A95F1F70000F2CF6F
:100E30002A9A08959CB5282F217030E085E0220F72
:100E4000331F8A95E1F7922B9CBD08952CB5982FFE
:100E50009370922B9CBD82FB882780F98DBD0895ED
:100E60002CB5837034E0839FC0011124282B2CBD46
:100E700008951092C50089E18093C400E0ECF0E091
:100E800080818D7F808386E08093C20088E180939B
:100E9000C10008959091C00095FFFCCF8093C600DB
:100EA00008958091C00087FFFCCF8091C60008950F
:100EB0008091C00087FFFCCF8091C00084FD08C0F6
:100EC0008091C00083FD07C08091C60090E0089526
:100ED0008EEF9FEF08958FEF9FEF0895CF93C82F68
:100EE0008A3019F48DE00E946E078091C00085FF62
:100EF000FCCFC093C60080E090E0CF91089597FBAF
:100F0000072E16F4009407D077FD09D00E949307AE
:100F100007FC05D03EF4909581959F4F08957095FC
:100F200061957F4F0895AA1BBB1B51E107C0AA1F03
:100F3000BB1FA617B70710F0A61BB70B881F991F7A
:100F40005A95A9F780959095BC01CD010895A0E030
:100F5000B0E0EDEAF7E00C94920AFE01359661915B
:100F60007191AF018091B7029091B8020E940A0876
:100F7000E2E00C94AE0A0F931F93CF93DF93E091BE
:100F8000B702F091B802238121FF1BC0EC0100E001
:100F900010E089916091B7027091B802DB01189658
:100FA000ED91FC911997882331F00995892B89F3EC
:100FB0000FEF1FEFEECF8AE00995892B11F4C801DE
:100FC00002C08FEF9FEFDF91CF911F910F91089596
:100FD000AEE0B0E0EEEEF7E00C94900A0D891E89C9
:100FE00086E08C831A8309838FEF9FE79E838D832E
:100FF000AE01475E5F4F6F89788DCE0101960E94EA
:101000000A08EF81F885E00FF11F10822E96E4E0C8
:101010000C94AC0AACE0B0E0E0E1F8E00C94820A99
:101020007C016B018A01FC0117821682838181FF9A
:10103000BDC1CE0101964C01F7019381F60193FDEC
:10104000859193FF81916F01882309F4ABC18532AB
:1010500039F493FD859193FF81916F01853229F4D5
:10106000B70190E00E94F209E7CF512C312C20E02B
:101070002032A0F48B3269F030F4803259F08332A0
:1010800069F420612CC08D3239F0803339F421604D
:1010900026C02260246023C0286021C027FD27C00D
:1010A00030ED380F3A3078F426FF06C0FAE05F9E44
:1010B000300D1124532E13C08AE0389E300D1124B8
:1010C000332E20620CC08E3221F426FD6BC12064C9
:1010D00006C08C3611F4206802C0883641F4F6014F
:1010E00093FD859193FF81916F018111C1CF982F5D
:1010F0009F7D9554933028F40C5F1F4FFFE3F983D5
:101100000DC0833631F0833771F0833509F05BC051
:1011100022C0F801808189830E5F1F4F44244394CD
:10112000512C540115C03801F2E06F0E711CF8010A
:10113000A080B18026FF03C0652D70E002C06FEF74
:101140007FEFC5012C870E94E7092C0183012C85C4
:101150002F77222E17C03801F2E06F0E711CF801B4
:10116000A080B18026FF03C0652D70E002C06FEF44
:101170007FEFC5012C870E94DC092C012C8520689B
:10118000222E830123FC1BC0832D90E048165906B4
:10119000B0F4B70180E290E00E94F2093A94F4CFF3
:1011A000F50127FC859127FE81915F01B70190E051
:1011B0000E94F20931103A94F1E04F1A510841149B
:1011C000510471F7E5C0843611F0893639F5F8011C
:1011D00027FF07C060817181828193810C5F1F4F5F
:1011E00008C060817181882777FD8095982F0E5FF8
:1011F0001F4F2F76B22E97FF09C09095809570955E
:1012000061957F4F8F4F9F4F2068B22E2AE030E0CC
:10121000A4010E94240AA82EA81844C0853729F4E6
:101220002F7EB22E2AE030E025C0F22FF97FBF2EAC
:101230008F36C1F018F4883579F0B4C0803719F0D2
:10124000883721F0AFC02F2F2061B22EB4FE0DC021
:101250008B2D8460B82E09C024FF0AC09F2F966092
:10126000B92E06C028E030E005C020E130E002C021
:1012700020E132E0F801B7FE07C060817181828110
:1012800093810C5F1F4F06C06081718180E090E008
:101290000E5F1F4FA4010E94240AA82EA818FB2D40
:1012A000FF77BF2EB6FE0BC02B2D2E7FA51450F45A
:1012B000B4FE0AC0B2FC08C02B2D2E7E05C07A2CCD
:1012C0002B2D03C07A2C01C0752C24FF0DC0FE010C
:1012D000EA0DF11D8081803311F4297E09C022FFBF
:1012E00006C07394739404C0822F867809F07394B7
:1012F00023FD13C020FF06C05A2C731418F4530C9E
:101300005718732C731468F4B70180E290E02C87AF
:101310000E94F20973942C85F5CF731410F43718DA
:1013200001C0312C24FF12C0B70180E390E02C876C
:101330000E94F2092C8522FF17C021FF03C088E517
:1013400090E002C088E790E0B7010CC0822F867859
:1013500059F021FD02C080E201C08BE227FD8DE241
:10136000B70190E00E94F209A51438F4B70180E3B8
:1013700090E00E94F2095A94F7CFAA94F401EA0D82
:10138000F11D8081B70190E00E94F209A110F5CF14
:10139000332009F451CEB70180E290E00E94F209B7
:1013A0003A94F6CFF7018681978102C08FEF9FEFC5
:1013B0002C96E2E10C949E0AFC010590615070406D
:1013C0000110D8F7809590958E0F9F1F0895FC010E
:1013D0006150704001900110D8F7809590958E0F64
:1013E0009F1F08950F931F93CF93DF93182F092FFB
:1013F000EB018B8181FD03C08FEF9FEF20C082FF47
:1014000010C04E815F812C813D81421753077CF4CF
:10141000E881F9819F012F5F3F4F39832883108333
:1014200006C0E885F985812F0995892B29F72E813A
:101430003F812F5F3F4F3F832E83812F902FDF917E
:10144000CF911F910F910895FA01AA27283051F1E9
:10145000203181F1E8946F936E7F6E5F7F4F8F4FE5
:101460009F4FAF4FB1E03ED0B4E03CD0670F781F44
:10147000891F9A1FA11D680F791F8A1F911DA11D29
:101480006A0F711D811D911DA11D20D009F4689462
:101490003F912AE0269F11243019305D3193DEF60A
:1014A000CF010895462F4770405D4193B3E00FD0C0
:1014B000C9F7F6CF462F4F70405D4A3318F0495DAB
:1014C00031FD4052419302D0A9F7EACFB4E0A6958E
:1014D0009795879577956795BA95C9F700976105B0
:1014E000710508959B01AC010A2E06945795479506
:1014F00037952795BA95C9F7620F731F841F951FFB
:10150000A01D08952F923F924F925F926F927F920B
:101510008F929F92AF92BF92CF92DF92EF92FF9203
:101520000F931F93CF93DF93CDB7DEB7CA1BDB0BAF
:101530000FB6F894DEBF0FBECDBF09942A88398854
:1015400048885F846E847D848C849B84AA84B9845B
:10155000C884DF80EE80FD800C811B81AA81B98167
:10156000CE0FD11D0FB6F894DEBF0FBECDBFED017B
:061570000895F894FFCF7E
:1015760000000003000000006E0758070000826F9D
:1015860062775F7370695F6C63645F7374617274B2
:101596000062775F7370695F726561645F6964009A
:1015A60062775F7370695F6C63645F7265696E69A9
:1015B600740062775F7370695F6C63645F676574FC
:1015C6005F6261636B6C69676874203A3D20002531
:1015D600640A0062775F7370695F6C63645F676556
:1015E600745F636F6E7472617374203A3D2000629B
:1015F600775F7370695F6C63645F636C73006277B7
:101606005F7370695F6C63645F746578745F6C693F
:101616006E655F31004156522041746D656C006203
:10162600775F7370695F6C63645F746578745F6C11
:10163600696E655F320041726475696E6F20556E22
:101646006F0062775F6932635F6C63645F737461B6
:1016560072740062775F6932635F726561645F69A5
:10166600640062775F6932635F6C63645F726569A9
:101676006E69740062775F6932635F6C63645F638F
:101686006C730062775F6932635F6C63645F746575
:1016960078745F6C696E655F31006D6370373934DD
:1016A60031785F7374617274006D637037393431E9
:1016B600785F6765745F646174655F74696D650002
:1016C600252E32643A252E32643A252E32642025A0
:1016D6002E32642D252E32642D252E32640A0062A8
:1016E600775F6932635F64696F5F737461727400F8
:1016F60062775F6932635F64696F5F6673656C5FAB
:101706006D61736B00252E32643A252E32643A25BC
:101716002E3264005B25735D0A005B252E32307322
:041726005D0A000058
:00000001FF
