:100000000C9434000C9451000C9451000C94510049
:100010000C9451000C9451000C9451000C9451001C
:100020000C9451000C9451000C9451000C9451000C
:100030000C9451000C9451000C9451000C945100FC
:100040000C9451000C9451000C9451000C945100EC
:100050000C9451000C9451000C9451000C945100DC
:100060000C9451000C94510011241FBECFEFD8E026
:10007000DEBFCDBF12E0A0E0B1E0ECE6F6E102C0E9
:1000800005900D92A03BB107D9F712E0A0EBB2E0CA
:1000900001C01D92A73BB107E1F70E9453000C94E9
:1000A000340B0C9400008F929F92AF92BF92CF922C
:1000B000DF92EF92FF920F931F93DF93CF93CDB711
:1000C000DEB76F970FB6F894DEBF0FBECDBF0E94AC
:1000D000AA078BE892E09093B4028093B30289E977
:1000E00092E09093B2028093B10282E88C8380E028
:1000F00091E00E941E088E010D5F1F4FC8010E94F3
:10010000BF0381E191E00E941E08C8010E94DA0449
:1001100000D083E291E0ADB7BEB712969C938E9368
:1001200011970E9409080F900F90C801BE016F5FE0
:100130007F4F0E94050500D000D0EDB7FEB7319685
:1001400040E4E42E41E0F42EADB7BEB71296FC9227
:10015000EE9211978981828313820E9409080F9081
:100160000F9084E491E0EDB7FEB7928381830E9403
:1001700009080F900F90C801BE016E5F7F4F0E946B
:10018000290500D000D0EDB7FEB73196ADB7BEB7A8
:100190001296FC92EE9211978A81828313820E94BA
:1001A00009080F900F900F900F9080E691E00E9449
:1001B0001E08C8010E9483048FE691E00E941E0879
:1001C000C80166E871E049E00E94270480E991E0F7
:1001D0000E941E08C80167EA71E04BE00E943E04DD
:1001E00083EB91E00E941E0882E80E944E0284EC9C
:1001F00091E00E941E08C8010E94CF0183ED91E0AA
:100200000E941E080E949E0385EE91E00E941E0837
:100210000E94FA0284EF91E00E941E0886E891E0B5
:1002200069E00E94B6028BE092E00E941E0880E026
:100230000E9452058AE192E00E941E083EE0E32EF1
:10024000F12CEC0EFD1EC7010E946805EDB7FEB74C
:100250003E970FB6F894FEBF0FBEEDBF319681E317
:1002600092E0ADB7BEB712969C938E9311978A8990
:100270009B899383828388899989958384838E85DA
:100280009F85978386838C899D89918780878E89B6
:100290009F8993878287888D998D958784870E940F
:1002A000090884E88C83EDB7FEB73E960FB6F89444
:1002B000FEBF0FBEEDBF80E592E00E941E08C801A0
:1002C0000E94090284EC91E00E941E08C8010E946D
:1002D000CF0181E692E00E941E08C8016FE70E94EC
:1002E0001A02AE2C9F2C25E0E22EF12CEC0EFD1E06
:1002F00096E7C92E92E0D92E84E8B82E802E012FE1
:100300008A2D992D0E9468058DB79EB70A970FB662
:10031000F8949EBF0FBE8DBFEDB7FEB73196ADB757
:10032000BEB71296FC92EE921197D382C2828A894E
:100330009B899583848388899989978386832E8571
:100340003F85318720870E945308EDB7FEB73A9664
:100350000FB6F894FEBF0FBEEDBFC70168E00E9464
:10036000C702BC82882D902F65E50E9431028FEF75
:1003700099E6A8E181509040A040E1F700C000005C
:10038000882D902F6AE20E9431028FEF99E6A8E152
:1003900081509040A040E1F700C00000B1CF0F9322
:1003A0001F93DF93CF93CDB7DEB765970FB6F89461
:1003B000DEBF0FBECDBF21E02983FC018181869580
:1003C0000E94EF06CE01019661E00E94F3068E01C5
:1003D0000E5F1F4FC80164E10E94250700D000D0C6
:1003E00085E892E0EDB7FEB792838183148303839F
:1003F0000E9409080F900F900F900F9065960FB60E
:10040000F894DEBF0FBECDBFCF91DF911F910F914A
:100410000895CF93DF93EC010E94E8068981882339
:1004200011F484E8898380E0DF91CF9108950E94E0
:10043000EE060895DF93CF9300D0CDB7DEB720E36B
:1004400029836A83FC01818186950E94EF06CE0193
:10045000019662E00E94F3060F900F90CF91DF911A
:100460000895DF93CF9300D0CDB7DEB720E1298385
:100470006A83FC01818186950E94EF06CE01019678
:1004800062E00E94F3060F900F90CF91DF910895E4
:100490008091A70286950E94EF060895DF93CF937F
:1004A0000F92CDB7DEB789830E94E8068981882341
:1004B00009F482E88093A70280E00F90CF91DF914A
:1004C00008950E94EE060895DF93CF9300D0CDB734
:1004D000DEB791E19983882311F090E201C090E0AA
:1004E00081E0662309F480E0892B8A830E94480218
:1004F000CE01019662E00E94F3060F900F90CF911B
:10050000DF9108951F93DF93CF93CDB7DEB7619747
:100510000FB6F894DEBF0FBECDBFFE01319621E1CC
:10052000DF011D922A95E9F7162F613108F010E1DD
:10053000DC01FE013296CF01810F911D02C02D9189
:100540002193E817F907D9F70E944802612F6F5FDE
:10055000CE0101960E94F30661960FB6F894DEBFB5
:100560000FBECDBFCF91DF911F9108951F93CF9301
:10057000DF93EC01162F80E060E00E946402CE0160
:10058000612F0E948202DF91CF911F9108951F93E6
:10059000CF93DF93EC01162F81E060E00E946402AC
:1005A000CE01612F0E948202DF91CF911F910895A9
:1005B0001F93CF93DF93EC01162F82E060E00E943F
:1005C0006402CE01612F0E948202DF91CF911F91C0
:1005D00008951F93CF93DF93EC01162F83E060E023
:1005E0000E946402CE01612F0E948202DF91CF91AE
:1005F0001F910895DF93CF9300D0CDB7DEB780E190
:10060000898380E28A830E94480280E48A95F1F718
:10061000CE01019662E00E94F3060F900F90CF91F9
:10062000DF910895DF93CF9300D0CDB7DEB792E18D
:1006300099838A830E944802CE01019662E00E945B
:10064000F3060F900F90CF91DF910895DF93CF9332
:1006500000D0CDB7DEB797E199838A830E94480224
:10066000CE01019662E00E94F3060F900F90CF91A9
:10067000DF910895DF93CF9300D0CDB7DEB788E048
:1006800089838FEF8A83662339F40E944802CE0162
:10069000019662E00E94F3060F900F90CF91DF91D8
:1006A0000895089508950895DF93CF9300D0CDB7AE
:1006B000DEB793E199838A830E944802CE010196B6
:1006C00062E00E94F3060F900F90CF91DF910895A2
:1006D0000F931F93DF93CF930F92CDB7DEB78C01AB
:1006E00083E189830E944802CE01019661E00E9465
:1006F000F306C80161E00E9425070F90CF91DF91BA
:100700001F910F9108950F931F93DF93CF930F9233
:10071000CDB7DEB78C0182E189830E944802CE0109
:10072000019661E00E94F306C80161E00E9425077E
:100730000F90CF91DF911F910F910895DF93CF9389
:1007400000D0CDB7DEB784E1898380E28A830E943E
:10075000480280E48A95F1F7CE01019662E00E949A
:10076000F3068FEF99E6A8E181509040A040E1F7B1
:1007700000C000000F900F90CF91DF910895CF93AC
:10078000DF93EC010E9453078981882311F482E8EA
:10079000898380E0DF91CF9108950E945B070895DF
:1007A000DF93CF9300D00F92CDB7DEB721E12A833C
:1007B000FC0181818983662311F090E201C090E001
:1007C00081E0442309F480E0892B8B83CE010196DC
:1007D00063E00E945D07F5E3FA95F1F700000F90E2
:1007E0000F900F90CF91DF910895DF93CF93CDB706
:1007F000DEB762970FB6F894DEBF0FBECDBFFC0127
:10080000818189831A82413108F040E1862F972F38
:10081000DC01FE013396CF01840F911D02C02D91A2
:100820002193E817F907D9F7642F6E5FCE0101967F
:100830000E945D07F5E3FA95F1F7000062960FB6A6
:10084000F894DEBF0FBECDBFCF91DF910895FF9228
:100850000F931F93CF93DF93EC018B01F42E60E095
:1008600040E00E94D003CE01B8014F2D0E94F50355
:10087000DF91CF911F910F91FF900895FF920F93F9
:100880001F93CF93DF93EC018B01F42E61E040E0E6
:100890000E94D003CE01B8014F2D0E94F503DF91D5
:1008A000CF911F910F91FF900895FF920F931F9387
:1008B000CF93DF93EC018B01F42E62E040E00E94C5
:1008C000D003CE01B8014F2D0E94F503DF91CF91E7
:1008D0001F910F91FF900895FF920F931F93CF9355
:1008E000DF93EC018B01F42E63E040E00E94D00323
:1008F000CE01B8014F2D0E94F503DF91CF911F91DA
:100900000F91FF900895DF93CF9300D00F92CDB752
:10091000DEB7DE011196ECEAF2E023E001900D92E1
:100920002150E1F7FC0181818983CE01019663E0CA
:100930000E945D07F5E3FA95F1F700000F900F9024
:100940000F90CF91DF910895DF93CF9300D00F9256
:10095000CDB7DEB722E12A83FC01818189836B83D5
:10096000F5E3FA95F1F70000CE01019663E00E94ED
:100970005D070F900F900F90CF91DF910895DF9357
:10098000CF9300D00F92CDB7DEB727E12A83FC01C9
:10099000818189836B83CE01019663E00E945D07AC
:1009A000F5E3FA95F1F700000F900F900F90CF91BB
:1009B000DF910895DF93CF9300D00F92CDB7DEB7CC
:1009C000DE011196E9EAF2E023E001900D92215058
:1009D000E1F7DC0111968C918983B5E3BA95F1F7C3
:1009E0000000CE01019663E00E945D078FEF93ED5A
:1009F000A0E381509040A040E1F700C000000F90BC
:100A00000F900F90CF91DF9108950F931F93DF9375
:100A1000CF9300D00F92CDB7DEB78B0123E12A83AD
:100A20001B82FC01818181608983CE01019663E094
:100A30000E946E07F5E3FA95F1F700008B81F8014B
:100A400080830F900F900F90CF91DF911F910F91A6
:100A500008950F931F93DF93CF9300D00F92CDB7DC
:100A6000DEB78B0122E12A831B82FC018181816038
:100A70008983CE01019663E00E946E07F5E3FA9543
:100A8000F1F700008B81F80180830F900F900F9099
:100A9000CF91DF911F910F9108958091A8020E943C
:100AA000EF060895DF93CF930F92CDB7DEB789831A
:100AB0000E94E8068981882309F48FE68093A802C2
:100AC00080E00F90CF91DF9108950E94EE06089587
:100AD000EF92FF920F931F93DF93CF93CDB7DEB7C3
:100AE00028970FB6F894DEBF0FBECDBF8C011982D8
:100AF000F2E0EF2EF12CEC0EFD1E87E0F7011192D3
:100B00008A95E9F70E944D05CE01019661E00E94A9
:100B1000F306C70167E00E9425074A8150E09A0169
:100B20002F773070E4E035952795EA95E1F7C90114
:100B3000880F991F63E0220F331F6A95E1F7820F38
:100B4000931F4F705070840F951FF801918380831D
:100B50004B8150E09A012F77307004E0359527954E
:100B60000A95E1F7C901880F991FB3E0220F331FDF
:100B7000BA95E1F7820F931F4F705070840F951F45
:100B8000938382834C8150E09A012F733070A4E0EC
:100B900035952795AA95E1F7C901880F991F63E05C
:100BA000220F331F6A95E1F7820F931F4F70507029
:100BB000840F951F958384838D8190E0877090705A
:100BC000958784874E8150E09A012F73307004E03E
:100BD000359527950A95E1F7C901880F991FB3E06C
:100BE000220F331FBA95E1F7820F931F4F70507099
:100BF000840F951F978386834F8150E09A012F7150
:100C00003070A4E035952795AA95E1F7C901880FC2
:100C1000991F63E0220F331F6A95E1F7820F931F3C
:100C20004F705070840F951F918780872885922F71
:100C300092959F708AE0989FC00111242F70820FB7
:100C4000911D9387828728960FB6F894DEBF0FBE5A
:100C5000CDBFCF91DF911F910F91FF90EF9008953D
:100C60008F929F92AF92BF92CF92DF92EF92FF92BC
:100C70000F931F93DF93CF93CDB7DEB728970FB6AF
:100C8000F894DEBF0FBECDBFDC01ED91FC91119752
:100C9000EF77F07012960D911C9113970F771070EB
:100CA0001496ED90FC9015978FE1E822FF2416969C
:100CB000CD90DC9017978FE3C822DD241896AD9075
:100CC000BC9019978FE1A822BB241A968D909C9016
:100CD0001B971C968D919C911D97877090702AE0B0
:100CE00030E0B9010E94E207482F48601982CF0125
:100CF000B9010E94E2076295607F680F60686A83AD
:100D0000C801B9010E94E2076295607F680F6B839A
:100D1000C701B9010E94E2076295607F680F6C838A
:100D20004D83C601B9010E94E2076295607F680F9A
:100D30006E83C501B9010E94E2076295607F680F6A
:100D40006F83C401B9010E94E2076295607F680F5A
:100D500068870E944D05CE01019668E00E94F30667
:100D600028960FB6F894DEBF0FBECDBFCF91DF91AE
:100D70001F910F91FF90EF90DF90CF90BF90AF90B9
:100D80009F908F9008951092BC0094EA9093BC00BD
:100D90009091BC0097FFFCCF9091B900987F98305C
:100DA00099F48093BB0084E88093BC008091BC00E0
:100DB00087FFFCCF9091B900987F983139F081E09E
:100DC000903429F480E0089581E0089580E008954A
:100DD00088E48093B800459A449A08950895880F4E
:100DE0008093B00208951F93DF93CF9300D0CDB7C7
:100DF000DEB7182F8091B00269839A830E94C306E0
:100E000069819A818823D1F4812FFC0194E80FC075
:100E100081918093BB009093BC008091BC0087FFC0
:100E2000FCCF8091B9006150887F883239F4662305
:100E300079F784E98093BC0080E001C081E00F90E5
:100E40000F90CF91DF911F9108950F931F93DF9320
:100E5000CF930F92CDB7DEB78C018091B002816045
:100E600069830E94C3066981882371F015C080934D
:100E7000BC009091BC0097FFFCCF9091BB00F801A3
:100E800091938F01615001C084EC662381F784E95E
:100E90008093BC0080E001C081E00F90CF91DF9192
:100EA0001F910F910895239A2498259A229A2A9A9D
:100EB00083E58CBD08951CBC0895FC012A980AC0E6
:100EC00081918EBD0DB407FEFDCF85E38A95F1F7C4
:100ED000000061506623A1F72A9A0895FC012A9820
:100EE0000CC080818EBD0DB407FEFDCF8EB5819301
:100EF00085E38A95F1F700006150662391F72A9AFD
:100F000008959CB58295880F807E892B8CBD0895AD
:100F10002CB5982F9270922B9CBD2CB5982F917068
:100F2000922B9CBD91E082FF90E09DBD08952CB571
:100F300090E081FF02C038E001C030E0232B2CBDDF
:100F40002CB581709070880F991F880F991F282BDE
:100F50002CBD08951092C50089E18093C400E0EC97
:100F6000F0E080818D7F808386E08093C20088E1FD
:100F70008093C10008959091C00095FFFCCF8093AD
:100F8000C60008958091C00087FFFCCF8091C60005
:100F900008958091C00087FFFCCF8091C60090E04B
:100FA00008951F93182F8A3019F48DE00E94D107FD
:100FB0008091C00085FFFCCF1093C60080E090E0D8
:100FC0001F91089597FB092E07260AD077FD04D0BC
:100FD0000CD006D000201AF4709561957F4F0895CB
:100FE000F6F7909581959F4F0895AA1BBB1B51E181
:100FF00007C0AA1FBB1FA617B70710F0A61BB70B89
:10100000881F991F5A95A9F780959095BC01CD012D
:101010000895A0E0B0E0EFE0F8E00C940D0BFE01C5
:101020003596619171918091B3029091B402AF01B4
:101030000E9476082096E2E00C94290BEF92FF9232
:101040000F931F93CF93DF938C01E091B302F09144
:10105000B402838181FF1FC0C0E0D0E00AC0DB0181
:101060001896ED91FC9119970995009711F0CFEF23
:10107000DFEFF80181918F016091B3027091B402AA
:10108000882369F7DB011896ED91FC9119978AE0A6
:101090000995009711F0CFEFDFEFCE01CDB7DEB7A6
:1010A000E6E00C94250BAEE0B0E0E9E5F8E00C9446
:1010B0000B0B0D891E8986E08C831A8309838FEFC1
:1010C0009FE79E838D839E01275E3F4FCE01019651
:1010D0006F89788DA9010E947608EF81F885E00F6D
:1010E000F11F10822E96E4E00C94270BACE0B0E0E8
:1010F000ECE7F8E00C94FD0A6C011B018A01FC018D
:1011000017821682838181FFD1C12E010894411C70
:10111000511CF6019381F10193FD859193FF81911B
:101120001F01882309F4BEC1853239F493FD8591EE
:1011300093FF81911F01853229F490E0B6010E944E
:10114000730AE7CFEE24FF2420E02032B0F48B3284
:1011500069F08C3228F4803251F0833271F40BC084
:101160008D3239F0803349F421602CC02260246034
:1011700029C0286027C0206125C027FD2CC0382F3A
:1011800030533A3098F426FF08C08E2D880FE82E91
:10119000EE0CEE0CE80EE30E15C08F2D880FF82E26
:1011A000FF0CFF0CF80EF30E20620CC08E3221F4FF
:1011B00026FD78C1206406C08C3611F4206802C078
:1011C000883649F4F10193FD859193FF81911F01C8
:1011D000882309F0BACF982F9554933018F0905285
:1011E000933028F40C5F1F4FFFE3F9830DC0833663
:1011F00031F0833771F0833509F060C022C0F80107
:10120000808189830E5F1F4F420171E0A72EB12CB0
:1012100016C062E0662E712C600E711EF80180808F
:10122000918026FF03C06E2D70E002C06FEF7FEF4C
:10123000C4012C870E94680A5C0183012C852F77EA
:1012400017C052E0652E712C600E711EF80180806F
:10125000918026FF03C06E2D70E002C06FEF7FEF1C
:10126000C4012C870E945D0A5C012C8520688301E3
:1012700023FD20C008C080E290E0B6012C870E94C8
:10128000730AFA942C858F2D90E0A816B90698F36E
:1012900011C0F40127FD859127FF81914F0190E056
:1012A000B6012C870E94730A2C85F110FA940894D9
:1012B000A108B108A114B10461F7F1C0843611F09E
:1012C000893649F527FF08C0F80160817181828164
:1012D00093810C5F1F4F09C0F801608171818827DD
:1012E00077FD8095982F0E5F1F4F4FE6B42EB222E8
:1012F00097FF09C090958095709561957F4F8F4FAE
:101300009F4FF0E8BF2AA2012AE030E00E949F0A26
:10131000782E741845C0853731F43FEEB32EB222D3
:101320002AE030E025C099EFB92EB2228F36C1F005
:10133000803720F4883509F0B5C00DC0803721F022
:10134000883709F0AFC002C020E1B22AB4FE0BC05A
:1013500084E0B82A08C0B4FE09C0E6E0BE2A06C090
:1013600028E030E005C020E130E002C020E132E0BA
:10137000B7FE08C0F80160817181828193810C5FA2
:101380001F4F07C0F8016081718180E090E00E5F1F
:101390001F4FA2010E949F0A782E7418FFE7BF22F8
:1013A000B6FE0BC02EEFB2227E1438F4B4FE07C096
:1013B000B2FC05C08FEEB82202C0A72C01C0AE2C33
:1013C0008B2D90E0B4FE0DC0FE01E70DF11D2081D4
:1013D000203319F4E9EEBE2209C0A394B2FE06C080
:1013E00004C086789070009709F0A3948B2C992400
:1013F000B3FC14C0B0FE0FC0AF1428F4E72CEF0C00
:10140000EA18AF2C08C0E72C06C080E290E0B601D5
:101410000E94730AA394AF14C0F304C0AF1410F475
:10142000FA1801C0FF2484FE0FC080E390E0B601EB
:101430000E94730A82FE1FC081FE03C088E590E00F
:1014400010C088E790E00DC0C401867890700097C6
:1014500091F081FC02C080E201C08BE2B7FC8DE21A
:1014600090E0B6010E94730A06C080E390E0B601E6
:101470000E94730AEA947E14C0F37A94F201E70D95
:10148000F11D808190E0B6010E94730A7720A9F7D0
:1014900006C080E290E0B6010E94730AFA94FF2031
:1014A000C1F737CEF6012681378102C02FEF3FEF1B
:1014B000C9012C96E2E10C94190BFC0105906150D6
:1014C00070400110D8F7809590958E0F9F1F08955A
:1014D000FC016150704001900110D8F78095909503
:1014E0008E0F9F1F08950F931F93CF93DF938C014F
:1014F000EB018B8181FF1BC082FF0DC02E813F81DC
:101500008C819D812817390764F4E881F981019362
:10151000F983E88306C0E885F985802F099500974F
:1015200031F48E819F8101969F838E8302C00FEFDD
:101530001FEFC801DF91CF911F910F910895FA011C
:10154000AA27283051F1203181F1E8946F936E7F02
:101550006E5F7F4F8F4F9F4FAF4FB1E03ED0B4E0F3
:101560003CD0670F781F891F9A1FA11D680F791F34
:101570008A1F911DA11D6A0F711D811D911DA11D45
:1015800020D009F468943F912AE0269F1124301955
:10159000305D3193DEF6CF010895462F4770405DF0
:1015A0004193B3E00FD0C9F7F6CF462F4F70405D9F
:1015B0004A3318F0495D31FD4052419302D0A9F7FA
:1015C000EACFB4E0A6959795879577956795BA95F4
:1015D000C9F700976105710508959B01AC010A2EBA
:1015E00006945795479537952795BA95C9F7620F91
:1015F000731F841F951FA01D08952F923F924F9235
:101600005F926F927F928F929F92AF92BF92CF9292
:10161000DF92EF92FF920F931F93CF93DF93CDB79B
:10162000DEB7CA1BDB0B0FB6F894DEBF0FBECDBF13
:1016300009942A88398848885F846E847D848C84E4
:101640009B84AA84B984C884DF80EE80FD800C81ED
:101650001B81AA81B981CE0FD11D0FB6F894DEBFD0
:0C1660000FBECDBFED010895F894FFCF40
:10166C0062775F7370695F6C63645F7374617274CB
:10167C000062775F7370695F6C63645F7265696E3B
:10168C0069740062775F7370695F6C63645F676530
:10169C00745F6261636B6C69676874203A3D20000B
:1016AC0025640A0062775F7370695F6C63645F67BF
:1016BC0065745F636F6E7472617374203A3D2000C1
:1016CC0062775F7370695F6C63645F636C730062F5
:1016DC00775F7370695F6C63645F746578745F6C5B
:1016EC00696E655F31004156522041746D656C0026
:1016FC0062775F7370695F6C63645F746578745F45
:10170C006C696E655F320041726475696E6F20554D
:10171C006E6F0062775F6932635F6C63645F7374D2
:10172C006172740062775F6932635F726561645FD6
:10173C0069640062775F6932635F6C63645F7265D2
:10174C00696E69740062775F6932635F6C63645FB2
:10175C00636C730062775F6932635F6C63645F74A0
:10176C006578745F6C696E655F31006D63703739D5
:10177C003431785F7374617274006D63703739340F
:10178C0031785F6765745F646174655F74696D65FA
:10179C0000252E32643A252E32643A252E326420EE
:1017AC00252E32642D252E32642D252E32640A000E
:1017BC0062775F6932635F64696F5F7374617274BF
:1017CC000062775F6932635F64696F5F6673656C33
:1017DC005F6D61736B00252E32643A252E32643AAC
:1017EC00252E3264005B25735D0A000000000200A8
:1017FC00000000D107000000000000000100000004
:10180C00000000C9070000826F00142000102000A7
:00000001FF
