:100000000C9434000C9451000C9451000C94510049
:100010000C9451000C9451000C9451000C9451001C
:100020000C9451000C9451000C9451000C9451000C
:100030000C9451000C9451000C9451000C945100FC
:100040000C9451000C9451000C9451000C945100EC
:100050000C9451000C9451000C9451000C945100DC
:100060000C9451000C94510011241FBECFEFD8E026
:10007000DEBFCDBF12E0A0E0B1E0E4E5FAE002C0EF
:1000800005900D92A838B107D9F712E0A8E8B2E0C0
:1000900001C01D92AF38B107E1F70E9453000C94E4
:1000A00028050C9400002F923F924F925F926F921E
:1000B0007F928F929F92AF92BF92CF92DF92EF92F8
:1000C000FF920F931F93CF93DF9300D0CDB7DEB78E
:1000D0000E94EB0180E091E090938A028093890274
:1000E00090938C0280938B020E94810100E010E0CB
:1000F0004DE1E42E41E0F42ED02E0038110509F434
:100100004AC08DEF800F853708F042C0802F0E94D3
:100110008A0180ED8D0D883020F080EB8D0D8031CF
:1001200030F461E0CE0101960E94BF0105C060E09D
:1001300080E090E00E948E0181112AC0E8E5F2E0A3
:1001400080E090E020812D110AC0FC01EE0FFF1F1E
:10015000E80FF91FE85AFD4F8181928107C001968F
:1001600033968031910571F78EE091E09F938F93E4
:10017000C801880F991F9F938F931F930F93FF922E
:10018000EF920E9431020FB6F894DEBF0FBECDBFD2
:100190000F5F1F4FB1CF8AE090E00E94450283E3DA
:1001A00091E00E944C0200E010E082E7282E81E0FE
:1001B000382E9EE6492E91E0592E0A83003811050B
:1001C00009F463C01F930F93A7E6B1E0BF93AF9309
:1001D0000E9431020F900F900F900F90E12CF12CA4
:1001E000580193E0A91AB1084801A0E38A1A9108BE
:1001F0003801B0E56B1A71086701C00ED11EC50148
:100200008E0D9F1D8537910518F05F924F921DC08E
:100210008A818E0D0E948A01C4018E0D9F1D089750
:1002200028F0C3018E0D9F1D409730F461E0CE0190
:1002300001960E94BF0105C060E080E090E00E944E
:100240008E01882339F03F922F920E9431020F9045
:100250000F900CC0DF92CF92A6E7B1E0BF93AF93AF
:100260000E9431020F900F900F900F909FEFE91AAC
:10027000F90AA0E1EA16F10409F0BECF8AE090E0A5
:100280000E944502005F1F4F98CF0E94870180E0C7
:1002900090E00F900F90DF91CF911F910F91FF9001
:1002A000EF90DF90CF90BF90AF909F908F907F9016
:1002B0006F905F904F903F902F9008951092BC00E8
:1002C00094EA9093BC009091BC0097FFFCCF909172
:1002D000B900987F983099F48093BB0084E88093AC
:1002E000BC008091BC0087FFFCCF9091B900987F43
:1002F000983119F081E0903419F480E0089581E09C
:10030000089588E48093B800459A449A089510921D
:10031000BC000895880F8093880208951F93CF939F
:10032000DF9300D0CDB7DEB7182F809188026983A4
:100330009A830E945E0169819A81811114C0E12F24
:10034000F92F610F84E86E1781F091919093BB00B3
:100350008093BC009091BC0097FFFCCF9091B900B6
:10036000987F983281F381E004C084E98093BC00D7
:1003700080E00F900F90DF91CF911F9108950F9320
:100380001F93CF93DF931F92CDB7DEB78C0180917F
:100390008802816069830E945E016981811114C0B5
:1003A00084EC615060F08093BC009091BC0097FF9A
:1003B000FCCF9091BB00F80191938F01F2CF84E9BB
:1003C0008093BC0080E001C081E00F90DF91CF916D
:1003D0001F910F9108951092C50089E18093C40088
:1003E000E0ECF0E080818D7F808386E08093C20026
:1003F00088E18093C10008959091C00095FFFCCFE3
:100400008093C60008958091C00087FFFCCF809143
:10041000C60008958091C00087FFFCCF8091C00086
:1004200084FD08C08091C00083FD07C08091C60094
:1004300090E008958EEF9FEF08958FEF9FEF08955E
:10044000CF93C82F8A3019F48DE00E94200280914A
:10045000C00085FFFCCFC093C60080E090E0CF9144
:100460000895A0E0B0E0E7E3F2E00C940105FE019E
:10047000359661917191AF0180918B0290918C02C0
:100480000E947902E2E00C941D0560918B0270914C
:100490008C020E94610408950F931F93CF93DF9302
:1004A000E0918B02F0918C02238121FF1BC0EC01B3
:1004B00000E010E0899160918B0270918C02DB0169
:1004C0001896ED91FC911997882331F00995892BA5
:1004D00089F30FEF1FEFEECF8AE00995892B11F416
:1004E000C80102C08FEF9FEFDF91CF911F910F9155
:1004F0000895ACE0B0E0EFE7F2E00C94F1047C0189
:100500006B018A01FC0117821682838181FFBDC1C4
:10051000CE0101964C01F7019381F60193FD85917F
:1005200093FF81916F01882309F4ABC1853239F4BF
:1005300093FD859193FF81916F01853229F4B70175
:1005400090E00E946104E7CF512C312C20E0203252
:10055000A0F48B3269F030F4803259F0833269F4C0
:1005600020612CC08D3239F0803339F4216026C0EF
:100570002260246023C0286021C027FD27C030ED01
:10058000380F3A3078F426FF06C0FAE05F9E300D4F
:100590001124532E13C08AE0389E300D1124332EBF
:1005A00020620CC08E3221F426FD6BC1206406C08F
:1005B0008C3611F4206802C0883641F4F60193FDB0
:1005C000859193FF81916F018111C1CF982F9F7DFC
:1005D0009554933028F40C5F1F4FFFE3F9830DC04F
:1005E000833631F0833771F0833509F05BC022C068
:1005F000F801808189830E5F1F4F44244394512C5E
:10060000540115C03801F2E06F0E711CF801A08092
:10061000B18026FF03C0652D70E002C06FEF7FEF51
:10062000C5012C870E9456042C0183012C852F774D
:10063000222E17C03801F2E06F0E711CF801A08065
:10064000B18026FF03C0652D70E002C06FEF7FEF21
:10065000C5012C870E944B042C012C852068222E7A
:10066000830123FC1BC0832D90E048165906B0F48B
:10067000B70180E290E00E9461043A94F4CFF50162
:1006800027FC859127FE81915F01B70190E00E94D0
:10069000610431103A94F1E04F1A510841145104A9
:1006A00071F7E5C0843611F0893639F5F80127FF76
:1006B00007C060817181828193810C5F1F4F08C0E8
:1006C00060817181882777FD8095982F0E5F1F4F7D
:1006D0002F76B22E97FF09C0909580957095619501
:1006E0007F4F8F4F9F4F2068B22E2AE030E0A40149
:1006F0000E949304A82EA81844C0853729F42F7EA1
:10070000B22E2AE030E025C0F22FF97FBF2E8F36BF
:10071000C1F018F4883579F0B4C0803719F0883703
:1007200021F0AFC02F2F2061B22EB4FE0DC08B2D53
:100730008460B82E09C024FF0AC09F2F9660B92E8E
:1007400006C028E030E005C020E130E002C020E132
:1007500032E0F801B7FE07C0608171818281938128
:100760000C5F1F4F06C06081718180E090E00E5FDA
:100770001F4FA4010E949304A82EA818FB2DFF77F9
:10078000BF2EB6FE0BC02B2D2E7FA51450F4B4FE49
:100790000AC0B2FC08C02B2D2E7E05C07A2C2B2D52
:1007A00003C07A2C01C0752C24FF0DC0FE01EA0D98
:1007B000F11D8081803311F4297E09C022FF06C01B
:1007C0007394739404C0822F867809F0739423FD88
:1007D00013C020FF06C05A2C731418F4530C57187A
:1007E000732C731468F4B70180E290E02C870E94A8
:1007F000610473942C85F5CF731410F4371801C07D
:10080000312C24FF12C0B70180E390E02C870E94B6
:1008100061042C8522FF17C021FF03C088E590E00A
:1008200002C088E790E0B7010CC0822F867859F0AB
:1008300021FD02C080E201C08BE227FD8DE2B701FD
:1008400090E00E946104A51438F4B70180E390E0C1
:100850000E9461045A94F7CFAA94F401EA0DF11DA5
:100860008081B70190E00E946104A110F5CF332090
:1008700009F451CEB70180E290E00E9461043A94FD
:10088000F6CFF7018681978102C08FEF9FEF2C96FC
:10089000E2E10C940D05FC010590615070400110DF
:1008A000D8F7809590958E0F9F1F0895FC01615099
:1008B000704001900110D8F7809590958E0F9F1F82
:1008C00008950F931F93CF93DF93182F092FEB01F8
:1008D0008B8181FD03C08FEF9FEF20C082FF10C08E
:1008E0004E815F812C813D81421753077CF4E88162
:1008F000F9819F012F5F3F4F39832883108306C002
:10090000E885F985812F0995892B29F72E813F816B
:100910002F5F3F4F3F832E83812F902FDF91CF9109
:100920001F910F910895FA01AA27283051F1203123
:1009300081F1E8946F936E7F6E5F7F4F8F4F9F4F73
:10094000AF4FB1E03ED0B4E03CD0670F781F891FB5
:100950009A1FA11D680F791F8A1F911DA11D6A0F83
:10096000711D811D911DA11D20D009F468943F9136
:100970002AE0269F11243019305D3193DEF6CF0135
:100980000895462F4770405D4193B3E00FD0C9F7FB
:10099000F6CF462F4F70405D4A3318F0495D31FD68
:1009A0004052419302D0A9F7EACFB4E0A6959795BB
:1009B000879577956795BA95C9F700976105710591
:1009C00008959B01AC010A2E0694579547953795DB
:1009D0002795BA95C9F7620F731F841F951FA01D35
:1009E00008952F923F924F925F926F927F928F92D3
:1009F0009F92AF92BF92CF92DF92EF92FF920F93AE
:100A00001F93CF93DF93CDB7DEB7CA1BDB0B0FB6B7
:100A1000F894DEBF0FBECDBF09942A883988488874
:100A20005F846E847D848C849B84AA84B984C8840A
:100A3000DF80EE80FD800C811B81AA81B981CE0F01
:100A4000D11D0FB6F894DEBF0FBECDBFED010895E6
:040A5000F894FFCF48
:100A5400000000030000000020020A020000556E9E
:100A64006B6E6F776E2064657669636500307825F8
:100A74002E3258203A203078252E3258203A20251C
:100A8400730A002020202020302020312020322012
:100A940020332020342020352020362020372020E9
:100AA4003820203920206120206220206320206407
:100AB40020206520206600253032783A200020204E
:100AC40020002D2D200025303278200042573A4C4A
:100AD40043440042573A37206469676974616C2063
:100AE400494F206C696E6573202844494F290042A0
:100AF400573A536572766F0042573A372046455449
:100B0400730042573A3320464554730042573A54CF
:100B1400656D700042573A52656C61790042573AEC
:100B24004D6F746F720042573A5573657220496E67
:100B34007465726661636520285549290042573AF5
:100B440037207365676D656E740042573A5075734C
:100B540068627574746F6E0042573A4269677265D1
:100B64006C61790042573A44696D6D657200425771
:100B74003A526173706265727279206A756963654D
:100B8400004D43503739343158207B454550524F3E
:100B94004D7D004D43503739343158207B535241F9
:100BA4004D20525443437D00417C01428301439FC5
:100BB4000144A80145B20146BC0147C40148CD0126
:100BC4004AD6014BED014DFA014E08024F14025270
:080BD4001E025731026F4302BB
:00000001FF
