:100000000C9434000C9451000C9451000C94510049
:100010000C9451000C9451000C9451000C9451001C
:100020000C9451000C9451000C9451000C9451000C
:100030000C9451000C9451000C9451000C945100FC
:100040000C9451000C9451000C9451000C945100EC
:100050000C9451000C9451000C9451000C945100DC
:100060000C9451000C94510011241FBECFEFD8E026
:10007000DEBFCDBF12E0A0E0B1E0E2EAFAE002C0EC
:1000800005900D92A639B107D9F712E0A6E9B2E0C2
:1000900001C01D92AD39B107E1F70E9453000C94E5
:1000A0004F050C9400004F925F926F927F928F9257
:1000B0009F92AF92BF92CF92DF92EF92FF920F93F7
:1000C0001F93DF93CF930F92CDB7DEB70E94080244
:1000D0008AE492E090939A028093990288E592E0F4
:1000E00090939802809397020E949D01CC241FE078
:1000F000E12E11E0F12E8E010F5F1F4F5AC02C2D03
:10010000233008F456C0283708F053C08C2D0E94C5
:10011000A4018C2D8053883018F08052803128F44F
:10012000C80161E00E94DA0105C080E090E060E073
:100130000E94A8018823E9F54C2D50E0BA01660F12
:10014000771FE6E6F2E020E030E080818C1551F484
:10015000F901EE0FFF1FE20FF31FEA59FD4F8181F6
:10016000928108C02F5F3F4F33962031310569F7E8
:1001700080E091E0ADB7BEB718970FB6F894BEBF58
:100180000FBEADBFEDB7FEB731961296FC92EE9260
:1001900011975383428375836483978386830E9478
:1001A0004002EDB7FEB738960FB6F894FEBF0FBE0B
:1001B000EDBFC394FC2DF03809F0A1CF8AE090E0A8
:1001C0000E94550285E291E00E945C02772439E5A5
:1001D000C32E31E0D32E20E6A22E21E0B22E98E6E7
:1001E000892E91E0992E84E6482E81E0582E7E01DA
:1001F0000894E11CF11C00D000D0EDB7FEB7319699
:10020000ADB7BEB71296DC92CE921197728213826E
:100210000E944002072D10E00F900F900F900F905A
:100220006624033011051CF00837110534F000D0A6
:10023000EDB7FEB7B282A18221C0802F0E94A40137
:10024000C801C0978830910530F0C80180559040B2
:100250008031910528F4C70161E00E94DA0105C0F0
:1002600080E090E060E00E94A801882361F000D067
:10027000ADB7BEB712965C924E9211970E944002A3
:100280000F900F900EC000D000D0EDB7FEB7928255
:100290008182148303830E9440020F900F900F907D
:1002A0000F9063940F5F1F4FF62DF03109F0B9CF17
:1002B0008AE090E00E94550220E1720E372D30381E
:1002C00009F099CF0E94A30180E090E00F90CF91B8
:1002D000DF911F910F91FF90EF90DF90CF90BF9033
:1002E000AF909F908F907F906F905F904F90089508
:1002F0001092BC0094EA9093BC009091BC0097FFD0
:10030000FCCF9091B900987F983099F48093BB000E
:1003100084E88093BC008091BC0087FFFCCF909163
:10032000B900987F983139F081E0903429F480E069
:10033000089581E0089580E0089588E48093B800EE
:10034000459A449A08950895880F809396020895D7
:100350001F93DF93CF9300D0CDB7DEB7182F8091D6
:10036000960269839A830E94780169819A81882321
:10037000D1F4812FFC0194E80FC081918093BB00E0
:100380009093BC008091BC0087FFFCCF8091B900A6
:100390006150887F883239F4662379F784E9809345
:1003A000BC0080E001C081E00F900F90CF91DF9101
:1003B0001F9108950F931F93DF93CF930F92CDB7A3
:1003C000DEB78C0180919602816069830E9478017A
:1003D0006981882371F015C08093BC009091BC00A6
:1003E00097FFFCCF9091BB00F80191938F01615072
:1003F00001C084EC662381F784E98093BC0080E02F
:1004000001C081E00F90CF91DF911F910F9108956E
:100410001092C50089E18093C400E0ECF0E0808197
:100420008D7F808386E08093C20088E18093C10045
:1004300008959091C00095FFFCCF8093C600089569
:100440008091C00087FFFCCF8091C6000895809105
:10045000C00087FFFCCF8091C60090E008951F93F5
:10046000182F8A3019F48DE00E942F028091C0006D
:1004700085FFFCCF1093C60080E090E01F910895A7
:10048000A0E0B0E0E6E4F2E00C942805FE01359629
:10049000619171918091990290919A02AF010E94AD
:1004A00091022096E2E00C944405609199027091CB
:1004B0009A020E948E040895EF92FF920F931F9369
:1004C000CF93DF938C01E0919902F0919A0283819E
:1004D00081FF1FC0C0E0D0E00AC0DB011896ED919B
:1004E000FC9119970995009711F0CFEFDFEFF80114
:1004F00081918F016091990270919A02882369F726
:10050000DB011896ED91FC9119978AE00995009707
:1005100011F0CFEFDFEFCE01CDB7DEB7E6E00C9400
:100520004005ACE0B0E0E7E9F2E00C9418056C019E
:100530001B018A01FC0117821682838181FFD1C1D0
:100540002E010894411C511CF6019381F10193FD89
:10055000859193FF81911F01882309F4BEC18532E3
:1005600039F493FD859193FF81911F01853229F420
:1005700090E0B6010E948E04E7CFEE24FF2420E035
:100580002032B0F48B3269F08C3228F4803251F092
:10059000833271F40BC08D3239F0803349F421601D
:1005A0002CC02260246029C0286027C0206125C09B
:1005B00027FD2CC0382F30533A3098F426FF08C05E
:1005C0008E2D880FE82EEE0CEE0CE80EE30E15C013
:1005D0008F2D880FF82EFF0CFF0CF80EF30E206203
:1005E0000CC08E3221F426FD78C1206406C08C3602
:1005F00011F4206802C0883649F4F10193FD859119
:1006000093FF81911F01882309F0BACF982F955449
:10061000933018F09052933028F40C5F1F4FFFE393
:10062000F9830DC0833631F0833771F0833509F0DB
:1006300060C022C0F801808189830E5F1F4F420194
:1006400071E0A72EB12C16C062E0662E712C600EF0
:10065000711EF8018080918026FF03C06E2D70E02E
:1006600002C06FEF7FEFC4012C870E9483045C01FE
:1006700083012C852F7717C052E0652E712C600EF8
:10068000711EF8018080918026FF03C06E2D70E0FE
:1006900002C06FEF7FEFC4012C870E9478045C01D9
:1006A0002C852068830123FD20C008C080E290E0F3
:1006B000B6012C870E948E04FA942C858F2D90E031
:1006C000A816B90698F311C0F40127FD859127FFFC
:1006D00081914F0190E0B6012C870E948E042C85F9
:1006E000F110FA940894A108B108A114B10461F7BB
:1006F000F1C0843611F0893649F527FF08C0F801AA
:1007000060817181828193810C5F1F4F09C0F80164
:1007100060817181882777FD8095982F0E5F1F4F2C
:100720004FE6B42EB22297FF09C090958095709540
:1007300061957F4F8F4F9F4FF0E8BF2AA2012AE0BB
:1007400030E00E94BA04782E741845C0853731F421
:100750003FEEB32EB2222AE030E025C099EFB92E49
:10076000B2228F36C1F0803720F4883509F0B5C049
:100770000DC0803721F0883709F0AFC002C020E1FA
:10078000B22AB4FE0BC084E0B82A08C0B4FE09C087
:10079000E6E0BE2A06C028E030E005C020E130E0F7
:1007A00002C020E132E0B7FE08C0F801608171812B
:1007B000828193810C5F1F4F07C0F80160817181B6
:1007C00080E090E00E5F1F4FA2010E94BA04782ED5
:1007D0007418FFE7BF22B6FE0BC02EEFB2227E14C4
:1007E00038F4B4FE07C0B2FC05C08FEEB82202C0D8
:1007F000A72C01C0AE2C8B2D90E0B4FE0DC0FE01E5
:10080000E70DF11D2081203319F4E9EEBE2209C065
:10081000A394B2FE06C004C086789070009709F0D9
:10082000A3948B2C9924B3FC14C0B0FE0FC0AF145A
:1008300028F4E72CEF0CEA18AF2C08C0E72C06C010
:1008400080E290E0B6010E948E04A394AF14C0F33E
:1008500004C0AF1410F4FA1801C0FF2484FE0FC0C6
:1008600080E390E0B6010E948E0482FE1FC081FEEC
:1008700003C088E590E010C088E790E00DC0C40197
:1008800086789070009791F081FC02C080E201C0F0
:100890008BE2B7FC8DE290E0B6010E948E0406C0A8
:1008A00080E390E0B6010E948E04EA947E14C0F3C7
:1008B0007A94F201E70DF11D808190E0B6010E946B
:1008C0008E047720A9F706C080E290E0B6010E946E
:1008D0008E04FA94FF20C1F737CEF60126813781C6
:1008E00002C02FEF3FEFC9012C96E2E10C943405D2
:1008F000FC010590615070400110D8F780959095EB
:100900008E0F9F1F0895FC016150704001900110EF
:10091000D8F7809590958E0F9F1F08950F931F9382
:10092000CF93DF938C01EB018B8181FF1BC082FF92
:100930000DC02E813F818C819D812817390764F479
:10094000E881F9810193F983E88306C0E885F98598
:10095000802F0995009731F48E819F8101969F83A6
:100960008E8302C00FEF1FEFC801DF91CF911F915F
:100970000F910895FA01AA27283051F1203181F111
:10098000E8946F936E7F6E5F7F4F8F4F9F4FAF4F97
:10099000B1E03ED0B4E03CD0670F781F891F9A1FAA
:1009A000A11D680F791F8A1F911DA11D6A0F711D5E
:1009B000811D911DA11D20D009F468943F912AE06A
:1009C000269F11243019305D3193DEF6CF01089552
:1009D000462F4770405D4193B3E00FD0C9F7F6CF83
:1009E000462F4F70405D4A3318F0495D31FD40524B
:1009F000419302D0A9F7EACFB4E0A69597958795E1
:100A000077956795BA95C9F70097610571050895BF
:100A10009B01AC010A2E069457954795379527956B
:100A2000BA95C9F7620F731F841F951FA01D089503
:100A30002F923F924F925F926F927F928F929F92EE
:100A4000AF92BF92CF92DF92EF92FF920F931F93DC
:100A5000CF93DF93CDB7DEB7CA1BDB0B0FB6F8948D
:100A6000DEBF0FBECDBF09942A88398848885F84CD
:100A70006E847D848C849B84AA84B984C884DF803E
:100A8000EE80FD800C811B81AA81B981CE0FD11D22
:100A90000FB6F894DEBF0FBECDBFED010895F894F8
:020AA000FFCF86
:100AA200556E6B6E6F776E20646576696365003094
:100AB20078252E3258203A203078252E3258203A86
:100AC2002025730A002020202020302020312020E1
:100AD2003220203320203420203520203620203799
:100AE200202038202039202061202062202063200D
:100AF200206420206520206600253032783A2000CC
:100B0200202020002D2D2000253032782000425751
:100B12003A4C43440042573A37206469676974612A
:100B22006C20494F206C696E6573202844494F2917
:100B32000042573A536572766F0042573A37204661
:100B42004554730042573A33204645547300425786
:100B52003A54656D700042573A52656C61790042B1
:100B6200573A4D6F746F720042573A55736572204F
:100B7200496E746572666163652028554929004291
:100B8200573A37207365676D656E740042573A5065
:100B9200757368627574746F6E0042573A42696782
:100BA20072656C61790042573A44696D6D657200F5
:100BB20042573A526173706265727279206A75693E
:100BC2006365004D43503739343158207B454550D9
:100BD200524F4D7D004D43503739343158207B53AD
:100BE20052414D20525443437D0000000002000058
:100BF20000002F02000000000000000100000000C1
:100C0200000027020000416E014275014391014438
:100C12009A0145A40146AE0147B60148BF014AC840
:100C2200014BDF014DEC014EFA014F060252100258
:060C32005723026F35029A
:00000001FF
